:0608180012081E12081E6A
:08081E007F157E01DEFEDFFA0A
:0108260022AF
:0C0852007F947E7A7D04DDFEDEFADFF686
:01085E002277
:10004600E4FD750C02209607AF0C050CEF70F61256
:100056000818E4F512309603751201750C023096F5
:1000660007AF0C050CEF70F6E50C6401600EE518A1
:0C00760025E0F518E51242180DBD08C683
:01008200225B
:10054800C296120852D29612081812081ED2962085
:100558009656750C02209607AF0C050CEF70F675D1
:100568000C02309607AF0C050CEF70F612004685AA
:10057800181512004685181612004685180A12002A
:100588004685180B120046851811D296E50A250BE8
:1005980025152516F512B5110F8515138516148521
:0905A8000A08850B0985110D22DA
:10060300120548E514C4540F75F010A4FDE5137FDB
:1006130000FEEF2DFFE5F03EFEE514540F7C002FA6
:10062300F51AEC3EF519E509C4540F75F010A4FD55
:10063300E5087F00FEEF2DFFE5F03EFEE509540FD0
:080643002FF50FEC3EF50E222D
:040003007F1BDFFE82
:0100070022D6
:0808A2007FCA7E93DEFEDFFA3F
:0108AA00222B
:0F082700D293D292120003C293120003C2922204
:0C086C00C293D292120003D29302000348
:0E083600A2009293D292120003C2920200031B
:0D085F00D292120003A293C2921200032253
:02002600AE0723
:10002800E4FDEE25E0FE9293D292120003C29212F2
:0900380000030DBD08EC02085F95
:10073C00E4FED293FDEE25E0FED292120003A293CA
:0F074C00E4334206C2921200030DBD08E8AF0667
:01075B00227B
:1007D000AC071208277F46120026AF04120026023B
:0207E000086CA3
:1006A5001208277F47120026E4FC12073C74302C01
:1006B500F8A607BC0304D2008002C2001208360C5B
:0906C500BC03E712086C0208A254
:0A088E007F011207D07F100207D08F
:10064B001206A5753A0085303BE53BFE7C00E425A0
:10065B0031F53BEC3EF53AFCAD3B1201337B9A7A1C
:10066B00997999783F12009112016C8E388F39224B
:1006CE00BFD5C6F8CAAAB6C83A2000092020200015
:1006DE00BFD5C6F8CEC2B6C83A2000092000B9E28E
:0806EE00D5D53A20000D0A00E9
:04008300023F000038
:10075C00438E805389F0758ACD758CD4C28DD28C22
:0B076C00D2AFD2A9D288D2A8D2AF220F
:03000B000202B13D
:1002B100C0E0C0F0C083C082C0D075D000C000C013
:0D02C10001C002C003C004C005C006C00794
:1002CE00758ACD758CD40540E5407002053F64E813
:1002DE007004E53F640360030204A17BFF7A067994
:1002EE00CE1206F6AE19AF1A7C007D64120218EF1C
:1002FE002430FF120898AE19AF1A7C007D641202EA
:10030E00187E007F0ACFCDCFCECCCE120218EF24AE
:10031E0030FF1208987F2E120898AE19AF1A7C0083
:10032E007D641202187E007F0ACFCDCFCECCCE12C6
:10033E000218ED2430FF1208987BFF7A0679D91245
:10034E0006F67BFF7A0679DE1206F6AE0EAF0F7C4E
:10035E00007D64120218EF2430FF120898AE0EAF23
:10036E000F7C007D641202187E007F0ACFCDCFCEA7
:10037E00CCCE120218EF2430FF1208987F2E1208EE
:10038E0098AE0EAF0F7C007D641202187E007F0ABD
:10039E00CFCDCFCECCCE120218ED2430FF1208985E
:1003AE007BFF7A0679E91206F67BFF7A0679EC1264
:1003BE0006F6AE38AF397C277D10120218EF2430C6
:1003CE00FF120898AE38AF397C277D101202187EC6
:1003DE00037FE8CFCDCFCECCCE120218EF2430FF64
:1003EE00120898AE38AF397C277D101202187E03A2
:1003FE007FE8CFCDCFCECCCE1202187E007F64CF59
:10040E00CDCFCECCCE120218EF2430FF120898AE0C
:10041E0038AF397C277D101202187E037FE8CFCDCE
:10042E00CFCECCCE1202187E007F64CFCDCFCECCF5
:10043E00CE1202187E007F0ACFCDCFCECCCE1202C6
:10044E0018EF2430FF120898AE38AF397C277D1094
:10045E001202187E037FE8CFCDCFCECCCE1202187B
:10046E007E007F64CFCDCFCECCCE1202187E007F21
:10047E000ACFCDCFCECCCE120218ED2430FF12080B
:10048E00987BFF7A0679F31206F61208A2753F00E2
:03049E00754000A6
:1004A100D007D006D005D004D003D002D001D000AF
:0B04B100D0D0D082D083D0F0D0E03259
:10079000759850758920758E40758BDC758DDCD20F
:0607A0008ED2AFD2AC22A4
:1007E200759A50438E1475D7E075D6FE75AF01D257
:0207F200AF2234
:1007F40075AC5075D10A75D5E075D4FE75AF08D2C5
:02080400AF2221
:0A0898008F99C2983099FDC2992291
:1006F6008B3C8A3D893EAB3CAA3DA93E1201ED608A
:1007060013053EE53E7002053D14F91201EDFF1298
:05071600089880E222BA
:0B0878008F9BE59A30E1FB539AFD22B4
:0B0883008FADE5AC30E1FB53ACFD2273
:030023000208448C
:0E084400859922C2988522993099FDC2993279
:030043000207A60B
:1007A600C0E0859B23539AFE85239BE59A30E1FBA7
:0607B600539AFDD0E03271
:03008B0002067BEF
:10067B00C0E0C0D075D000C000C00753ACFEAF21A6
:10068B00052174242FF8A6ADE524640460037521BD
:0A069B0000D007D000D0D0D0E0322C
:06000E00120014120014A0
:0D0014007FA57EE97D0ADDFEDEFADFF60045
:0100210022BC
:1005B100E4F5AFD282F5217F041208837F0312088C
:1005C10083E4FF120883E4FF120883E4FF12088327
:1005D1007F011208837F841208837F5F120883756D
:1005E100AF08C28212000E12000EAF27EF3395E062
:1005F100EFFEAD28ED3395E0FCE42DF542EE3CF540
:02060100412294
:100806000000000000E4F59275910175DE0F75BCDD
:0208160080223E
:10077700E4FDFCEF44C0F5BC00000000E5BC30E53B
:08078700FB53BCDFAFBDAD0761
:01078F002247
:10071B007F07120777EF3395E0F51B8F1CFE7C13D9
:10072B007D881202067C017D001202188E1D8F1E21
:01073B00229B
:1007BC001207901207E212075C12088E120603123F
:0407CC00064B80F860
:10008E000201E2EC5D046005E8590470030201D838
:10009E001201A3580460F6EC4860F2EC7004FDFE09
:1000AE00FF22C860DB2481C85009C3986002500645
:1000BE000201DF9850CAF582E9294B4A7005AB82DE
:1000CE000201CE75F0007C1A7880C3EF9BEE9AED9C
:1000DE0099400DC3EF9BFFEE9AFEED99FDE842F0BD
:1000EE00DC23ACF0D0E0FFD0E0FED0E0FDAB822010
:1000FE00E7101BEB60BAEC2CFCEF33FFEE33FEED9A
:10010E0033FD0201BAE803F830E705C0F075F000E0
:10011E00EF2FFFEE33FEED33FD40B830E7C280AA7D
:10012E0075F020800E75F010800575F0087D007E4C
:10013E00007F003392D530D50312024EEC334010BF
:10014E00EF33FFEE33FEED33FDEC33FCD5F0ED2255
:0E015E00E5F0247EA2D513CC92E7CDCEFF2291
:10016C00EDD2E7CD33EC3392D524814006E4FFFE8B
:10017C00FDFC22FCE4CFCECDCC24E0501174FF80EA
:10018C00EDC3CC13CCCD13CDCE13CECF13CF047087
:07019C00F030D5DE02024E37
:1001A300E9D2E7C933E833F892D5EDD2E7CD33ECA2
:0701B30033FC5002B2D5221B
:1001BA00EC30E7100FBF000C0EBE00080DBD0004A6
:1001CA000BEB6014A2D5EB13FCED92E7FD2274FF52
:1001DA00FCFDFEFF22E480F8A2D574FF13FC7D80AB
:0301EA00E480EFBF
:030000000204BC3B
:0C04BC00787FE4F6D8FD7581420205034C
:1001ED00BB010689828A83E0225002E722BBFE0210
:0901FD00E32289828A83E4932243
:10020600EF8DF0A4A8F0CF8CF0A428CE8DF0A42E0C
:02021600FE22C6
:10021800C2D5EC30E709B2D5E4C39DFDE49CFCEE01
:1002280030E715B2D5E4C39FFFE49EFE12025CC31B
:10023800E49DFDE49CFC800312025C30D507C3E416
:060248009FFFE49EFE2270
:0E024E00C3E49FFFE49EFEE49DFDE49CFC22C1
:1004C8000207BCE493A3F8E493A34003F68001F287
:1004D80008DFF48029E493A3F85407240CC8C33335
:1004E800C4540F4420C8834004F456800146F6DF04
:1004F800E4800B0102040810204080900083E47E11
:10050800019360BCA3FF543F30E509541FFEE493F8
:10051800A360010ECF54C025E060A840B8E493A3BF
:10052800FAE493A3F8E493A3C8C582C8CAC583CAEA
:10053800F0A3C8C582C8CAC583CADFE9DEE780BEA2
:010087000078
:10025C00BC000BBE0029EF8DF084FFADF022E4CC86
:10026C00F875F008EF2FFFEE33FEEC33FCEE9DEC4F
:10027C00984005FCEE9DFE0FD5F0E9E4CEFD22ED95
:10028C00F8F5F0EE8420D21CFEADF075F008EF2FDF
:10029C00FFED33FD4007985006D5F0F222C398FDD0
:0502AC000FD5F0EA226D
:00000001FF
